{
  "contractName": "ByteTradeEthereumPlugin",
  "abi": [
    {
      "constant": true,
      "inputs": [
        {
          "name": "",
          "type": "address"
        }
      ],
      "name": "voteWeight",
      "outputs": [
        {
          "name": "",
          "type": "uint256"
        }
      ],
      "payable": false,
      "stateMutability": "view",
      "type": "function"
    },
    {
      "constant": true,
      "inputs": [],
      "name": "owner",
      "outputs": [
        {
          "name": "",
          "type": "address"
        }
      ],
      "payable": false,
      "stateMutability": "view",
      "type": "function"
    },
    {
      "constant": true,
      "inputs": [
        {
          "name": "",
          "type": "bytes20"
        }
      ],
      "name": "transactions",
      "outputs": [
        {
          "name": "",
          "type": "bool"
        }
      ],
      "payable": false,
      "stateMutability": "view",
      "type": "function"
    },
    {
      "constant": true,
      "inputs": [
        {
          "name": "",
          "type": "address"
        }
      ],
      "name": "tokens",
      "outputs": [
        {
          "name": "",
          "type": "uint256"
        }
      ],
      "payable": false,
      "stateMutability": "view",
      "type": "function"
    },
    {
      "constant": true,
      "inputs": [],
      "name": "totalVoteWeight",
      "outputs": [
        {
          "name": "",
          "type": "uint256"
        }
      ],
      "payable": false,
      "stateMutability": "view",
      "type": "function"
    },
    {
      "constant": false,
      "inputs": [
        {
          "name": "newOwner",
          "type": "address"
        }
      ],
      "name": "transferOwnership",
      "outputs": [],
      "payable": false,
      "stateMutability": "nonpayable",
      "type": "function"
    },
    {
      "inputs": [],
      "payable": false,
      "stateMutability": "nonpayable",
      "type": "constructor"
    },
    {
      "anonymous": false,
      "inputs": [
        {
          "indexed": false,
          "name": "user",
          "type": "address"
        },
        {
          "indexed": false,
          "name": "chainAddress",
          "type": "string"
        },
        {
          "indexed": false,
          "name": "token",
          "type": "address"
        },
        {
          "indexed": false,
          "name": "symbol",
          "type": "string"
        },
        {
          "indexed": false,
          "name": "name",
          "type": "string"
        },
        {
          "indexed": false,
          "name": "decimals",
          "type": "uint8"
        },
        {
          "indexed": false,
          "name": "signature",
          "type": "string"
        }
      ],
      "name": "CreateAsset",
      "type": "event"
    },
    {
      "anonymous": false,
      "inputs": [
        {
          "indexed": false,
          "name": "token",
          "type": "address"
        },
        {
          "indexed": false,
          "name": "user",
          "type": "address"
        },
        {
          "indexed": false,
          "name": "amount",
          "type": "uint256"
        },
        {
          "indexed": false,
          "name": "toChainAddress",
          "type": "string"
        }
      ],
      "name": "DepositEvent",
      "type": "event"
    },
    {
      "anonymous": false,
      "inputs": [
        {
          "indexed": false,
          "name": "id",
          "type": "bytes20"
        },
        {
          "indexed": false,
          "name": "token",
          "type": "address"
        },
        {
          "indexed": false,
          "name": "toUser",
          "type": "address"
        },
        {
          "indexed": false,
          "name": "amount",
          "type": "uint256"
        }
      ],
      "name": "WithdrawEvent",
      "type": "event"
    },
    {
      "anonymous": false,
      "inputs": [
        {
          "indexed": false,
          "name": "from",
          "type": "address"
        },
        {
          "indexed": false,
          "name": "to",
          "type": "address"
        },
        {
          "indexed": false,
          "name": "amount",
          "type": "uint256"
        }
      ],
      "name": "TransferVoteWeightEvent",
      "type": "event"
    },
    {
      "anonymous": false,
      "inputs": [
        {
          "indexed": true,
          "name": "previousOwner",
          "type": "address"
        },
        {
          "indexed": true,
          "name": "newOwner",
          "type": "address"
        }
      ],
      "name": "OwnershipTransferred",
      "type": "event"
    },
    {
      "constant": false,
      "inputs": [
        {
          "name": "token",
          "type": "address"
        },
        {
          "name": "chainAddress",
          "type": "string"
        },
        {
          "name": "signature",
          "type": "string"
        }
      ],
      "name": "createasset",
      "outputs": [],
      "payable": false,
      "stateMutability": "nonpayable",
      "type": "function"
    },
    {
      "constant": false,
      "inputs": [
        {
          "name": "toChainAddress",
          "type": "string"
        }
      ],
      "name": "deposit",
      "outputs": [],
      "payable": true,
      "stateMutability": "payable",
      "type": "function"
    },
    {
      "constant": false,
      "inputs": [
        {
          "name": "token",
          "type": "address"
        },
        {
          "name": "amount",
          "type": "uint256"
        },
        {
          "name": "toChainAddress",
          "type": "string"
        }
      ],
      "name": "depositToken",
      "outputs": [],
      "payable": false,
      "stateMutability": "nonpayable",
      "type": "function"
    },
    {
      "constant": false,
      "inputs": [
        {
          "name": "id",
          "type": "bytes20"
        },
        {
          "name": "token",
          "type": "address"
        },
        {
          "name": "user",
          "type": "address"
        },
        {
          "name": "amount",
          "type": "uint256"
        },
        {
          "name": "approveAddress",
          "type": "address[]"
        },
        {
          "name": "r",
          "type": "bytes32[]"
        },
        {
          "name": "s",
          "type": "bytes32[]"
        },
        {
          "name": "v",
          "type": "uint8[]"
        }
      ],
      "name": "withdrawBySigns",
      "outputs": [],
      "payable": true,
      "stateMutability": "payable",
      "type": "function"
    },
    {
      "constant": true,
      "inputs": [
        {
          "name": "_owner",
          "type": "address"
        }
      ],
      "name": "voteWeightOf",
      "outputs": [
        {
          "name": "balance",
          "type": "uint256"
        }
      ],
      "payable": false,
      "stateMutability": "view",
      "type": "function"
    },
    {
      "constant": true,
      "inputs": [
        {
          "name": "token",
          "type": "address"
        }
      ],
      "name": "balanceOfToken",
      "outputs": [
        {
          "name": "",
          "type": "uint256"
        }
      ],
      "payable": false,
      "stateMutability": "view",
      "type": "function"
    }
  ],
  "bytecode": "0x608060405234801561001057600080fd5b50336000806101000a81548173ffffffffffffffffffffffffffffffffffffffff021916908373ffffffffffffffffffffffffffffffffffffffff1602179055506302aea540600260007317cd27f4e20556aa6faa1cbbfa7ff7262a0574d373ffffffffffffffffffffffffffffffffffffffff1673ffffffffffffffffffffffffffffffffffffffff168152602001908152602001600020819055506302625a00600260007301de01795d0c49e144376ac4682c7d449f2f532773ffffffffffffffffffffffffffffffffffffffff1673ffffffffffffffffffffffffffffffffffffffff168152602001908152602001600020819055506302625a0060026000733dd0716fde30f8abeb8f7a5dfff5b08ba808e8b573ffffffffffffffffffffffffffffffffffffffff1673ffffffffffffffffffffffffffffffffffffffff168152602001908152602001600020819055506302625a006002600073acbd9c84038177b92be705160139183f39ceca9773ffffffffffffffffffffffffffffffffffffffff1673ffffffffffffffffffffffffffffffffffffffff168152602001908152602001600020819055506302625a0060026000735b84457e71d97b46a6aa118c20d55900fa7ce2d973ffffffffffffffffffffffffffffffffffffffff1673ffffffffffffffffffffffffffffffffffffffff168152602001908152602001600020819055506302625a006002600073b380a2c97954fe567047243f7ce19801f85ad35773ffffffffffffffffffffffffffffffffffffffff1673ffffffffffffffffffffffffffffffffffffffff168152602001908152602001600020819055506302625a0060026000736e917d29361a1cbdbfbd7c4e87384b6445d4e73573ffffffffffffffffffffffffffffffffffffffff1673ffffffffffffffffffffffffffffffffffffffff168152602001908152602001600020819055506302625a00600260007392e1f1165abf7167a844f4544704865288be32cb73ffffffffffffffffffffffffffffffffffffffff1673ffffffffffffffffffffffffffffffffffffffff168152602001908152602001600020819055506302625a00600260007339347eadf8258d8d8bd3386a5542bc9b613175a773ffffffffffffffffffffffffffffffffffffffff1673ffffffffffffffffffffffffffffffffffffffff168152602001908152602001600020819055506302625a0060026000739a1e4b075dfb5b97e4aa33ed0e4ebf6e509bdbab73ffffffffffffffffffffffffffffffffffffffff1673ffffffffffffffffffffffffffffffffffffffff168152602001908152602001600020819055506302625a0060026000735974a1aa65fbc222a19fbadba7e9ab55e0ac167973ffffffffffffffffffffffffffffffffffffffff1673ffffffffffffffffffffffffffffffffffffffff16815260200190815260200160002081905550631a862940600381905550611c358061045f6000396000f3006080604052600436106100ba576000357c0100000000000000000000000000000000000000000000000000000000900463ffffffff168063061aad6e146100bf5780633dc17a521461018e5780637eadebfe146103135780637fb8b61e1461036a5780638da5cb5b146103c15780639cf40c0b14610418578063a10d09601461046c578063a26e1186146104ff578063b99152d01461055b578063e4860339146105b2578063e5188f5514610609578063f2fde38b14610634575b600080fd5b3480156100cb57600080fd5b5061018c600480360381019080803573ffffffffffffffffffffffffffffffffffffffff169060200190929190803590602001908201803590602001908080601f0160208091040260200160405190810160405280939291908181526020018383808284378201915050505050509192919290803590602001908201803590602001908080601f0160208091040260200160405190810160405280939291908181526020018383808284378201915050505050509192919290505050610677565b005b61031160048036038101908080356bffffffffffffffffffffffff19169060200190929190803573ffffffffffffffffffffffffffffffffffffffff169060200190929190803573ffffffffffffffffffffffffffffffffffffffff1690602001909291908035906020019092919080359060200190820180359060200190808060200260200160405190810160405280939291908181526020018383602002808284378201915050505050509192919290803590602001908201803590602001908080602002602001604051908101604052809392919081815260200183836020028082843782019150505050505091929192908035906020019082018035906020019080806020026020016040519081016040528093929190818152602001838360200280828437820191505050505050919291929080359060200190820180359060200190808060200260200160405190810160405280939291908181526020018383602002808284378201915050505050509192919290505050610b5b565b005b34801561031f57600080fd5b50610354600480360381019080803573ffffffffffffffffffffffffffffffffffffffff169060200190929190505050611017565b6040518082815260200191505060405180910390f35b34801561037657600080fd5b506103ab600480360381019080803573ffffffffffffffffffffffffffffffffffffffff16906020019092919050505061102f565b6040518082815260200191505060405180910390f35b3480156103cd57600080fd5b506103d6611078565b604051808273ffffffffffffffffffffffffffffffffffffffff1673ffffffffffffffffffffffffffffffffffffffff16815260200191505060405180910390f35b34801561042457600080fd5b5061045260048036038101908080356bffffffffffffffffffffffff1916906020019092919050505061109d565b604051808215151515815260200191505060405180910390f35b34801561047857600080fd5b506104fd600480360381019080803573ffffffffffffffffffffffffffffffffffffffff16906020019092919080359060200190929190803590602001908201803590602001908080601f01602080910402602001604051908101604052809392919081815260200183838082843782019150505050505091929192905050506110bd565b005b610559600480360381019080803590602001908201803590602001908080601f01602080910402602001604051908101604052809392919081815260200183838082843782019150505050505091929192905050506113b1565b005b34801561056757600080fd5b5061059c600480360381019080803573ffffffffffffffffffffffffffffffffffffffff16906020019092919050505061154f565b6040518082815260200191505060405180910390f35b3480156105be57600080fd5b506105f3600480360381019080803573ffffffffffffffffffffffffffffffffffffffff169060200190929190505050611598565b6040518082815260200191505060405180910390f35b34801561061557600080fd5b5061061e6115b0565b6040518082815260200191505060405180910390f35b34801561064057600080fd5b50610675600480360381019080803573ffffffffffffffffffffffffffffffffffffffff1690602001909291905050506115b6565b005b7f79470ec3f0acdfeae4153985471320f445a530e87c30c39c25b0eaf088c6dc223383858673ffffffffffffffffffffffffffffffffffffffff166395d89b416040518163ffffffff167c0100000000000000000000000000000000000000000000000000000000028152600401600060405180830381600087803b1580156106ff57600080fd5b505af1158015610713573d6000803e3d6000fd5b505050506040513d6000823e3d601f19601f82011682018060405250602081101561073d57600080fd5b81019080805164010000000081111561075557600080fd5b8281019050602081018481111561076b57600080fd5b815185600182028301116401000000008211171561078857600080fd5b50509291905050508773ffffffffffffffffffffffffffffffffffffffff166306fdde036040518163ffffffff167c0100000000000000000000000000000000000000000000000000000000028152600401600060405180830381600087803b1580156107f457600080fd5b505af1158015610808573d6000803e3d6000fd5b505050506040513d6000823e3d601f19601f82011682018060405250602081101561083257600080fd5b81019080805164010000000081111561084a57600080fd5b8281019050602081018481111561086057600080fd5b815185600182028301116401000000008211171561087d57600080fd5b50509291905050508873ffffffffffffffffffffffffffffffffffffffff1663313ce5676040518163ffffffff167c0100000000000000000000000000000000000000000000000000000000028152600401602060405180830381600087803b1580156108e957600080fd5b505af11580156108fd573d6000803e3d6000fd5b505050506040513d602081101561091357600080fd5b810190808051906020019092919050505087604051808873ffffffffffffffffffffffffffffffffffffffff1673ffffffffffffffffffffffffffffffffffffffff168152602001806020018773ffffffffffffffffffffffffffffffffffffffff1673ffffffffffffffffffffffffffffffffffffffff16815260200180602001806020018660ff1660ff1681526020018060200185810385528b818151815260200191508051906020019080838360005b838110156109e15780820151818401526020810190506109c6565b50505050905090810190601f168015610a0e5780820380516001836020036101000a031916815260200191505b50858103845289818151815260200191508051906020019080838360005b83811015610a47578082015181840152602081019050610a2c565b50505050905090810190601f168015610a745780820380516001836020036101000a031916815260200191505b50858103835288818151815260200191508051906020019080838360005b83811015610aad578082015181840152602081019050610a92565b50505050905090810190601f168015610ada5780820380516001836020036101000a031916815260200191505b50858103825286818151815260200191508051906020019080838360005b83811015610b13578082015181840152602081019050610af8565b50505050905090810190601f168015610b405780820380516001836020036101000a031916815260200191505b509b50505050505050505050505060405180910390a1505050565b60008060008060003073ffffffffffffffffffffffffffffffffffffffff168c73ffffffffffffffffffffffffffffffffffffffff1614151515610b9e57600080fd5b60008a111515610bad57600080fd5b60001515600460008f6bffffffffffffffffffffffff19166bffffffffffffffffffffffff1916815260200190815260200160002060009054906101000a900460ff161515141515610bfe57600080fd5b8a73ffffffffffffffffffffffffffffffffffffffff163373ffffffffffffffffffffffffffffffffffffffff16141515610c3857600080fd5b6000945060009350600094505b8851851015610cde576001850193505b8851841015610cd1578884815181101515610c6c57fe5b9060200190602002015173ffffffffffffffffffffffffffffffffffffffff168986815181101515610c9a57fe5b9060200190602002015173ffffffffffffffffffffffffffffffffffffffff1614151515610cc457fe5b8380600101945050610c55565b8480600101955050610c45565b600094505b8851851015610ed3578c8c8c8c60405180856bffffffffffffffffffffffff19166bffffffffffffffffffffffff191681526014018473ffffffffffffffffffffffffffffffffffffffff1673ffffffffffffffffffffffffffffffffffffffff166c010000000000000000000000000281526014018373ffffffffffffffffffffffffffffffffffffffff1673ffffffffffffffffffffffffffffffffffffffff166c01000000000000000000000000028152601401828152602001945050505050604051809103902092506001838787815181101515610dc157fe5b906020019060200201518a88815181101515610dd957fe5b906020019060200201518a89815181101515610df157fe5b90602001906020020151604051600081526020016040526040518085600019166000191681526020018460ff1660ff1681526020018360001916600019168152602001826000191660001916815260200194505050505060206040516020810390808403906000865af1158015610e6c573d6000803e3d6000fd5b5050506020604051035191508173ffffffffffffffffffffffffffffffffffffffff168986815181101515610e9d57fe5b9060200190602002015173ffffffffffffffffffffffffffffffffffffffff16141515610ec657fe5b8480600101955050610ce3565b60009050600094505b8851851015610f5d57610f4e600260008b88815181101515610efa57fe5b9060200190602002015173ffffffffffffffffffffffffffffffffffffffff1673ffffffffffffffffffffffffffffffffffffffff168152602001908152602001600020548261170b90919063ffffffff16565b90508480600101955050610edc565b6003548111151515610f6b57fe5b6001600460008f6bffffffffffffffffffffffff19166bffffffffffffffffffffffff1916815260200190815260200160002060006101000a81548160ff0219169083151502179055506002600354811515610fc357fe5b048111156110085760008c73ffffffffffffffffffffffffffffffffffffffff161415610ffa57610ff58d8c8c611729565b611007565b6110068d8d8d8d61193c565b5b5b50505050505050505050505050565b60026020528060005260406000206000915090505481565b6000600260008373ffffffffffffffffffffffffffffffffffffffff1673ffffffffffffffffffffffffffffffffffffffff168152602001908152602001600020549050919050565b6000809054906101000a900473ffffffffffffffffffffffffffffffffffffffff1681565b60046020528060005260406000206000915054906101000a900460ff1681565b60008373ffffffffffffffffffffffffffffffffffffffff161115156110e257600080fd5b6000821115156110f157600080fd5b8273ffffffffffffffffffffffffffffffffffffffff166323b872dd3330856040518463ffffffff167c0100000000000000000000000000000000000000000000000000000000028152600401808473ffffffffffffffffffffffffffffffffffffffff1673ffffffffffffffffffffffffffffffffffffffff1681526020018373ffffffffffffffffffffffffffffffffffffffff1673ffffffffffffffffffffffffffffffffffffffff1681526020018281526020019350505050602060405180830381600087803b1580156111c857600080fd5b505af11580156111dc573d6000803e3d6000fd5b505050506040513d60208110156111f257600080fd5b8101908080519060200190929190505050151561120b57fe5b61125d82600160008673ffffffffffffffffffffffffffffffffffffffff1673ffffffffffffffffffffffffffffffffffffffff1681526020019081526020016000205461170b90919063ffffffff16565b600160008573ffffffffffffffffffffffffffffffffffffffff1673ffffffffffffffffffffffffffffffffffffffff168152602001908152602001600020819055507f9abc03496c1032d5360782ca78af72ed77b086c26cb5a6a98b01178546795ec083338484604051808573ffffffffffffffffffffffffffffffffffffffff1673ffffffffffffffffffffffffffffffffffffffff1681526020018473ffffffffffffffffffffffffffffffffffffffff1673ffffffffffffffffffffffffffffffffffffffff16815260200183815260200180602001828103825283818151815260200191508051906020019080838360005b8381101561136f578082015181840152602081019050611354565b50505050905090810190601f16801561139c5780820380516001836020036101000a031916815260200191505b509550505050505060405180910390a1505050565b6000341115156113c057600080fd5b61141234600160008073ffffffffffffffffffffffffffffffffffffffff1673ffffffffffffffffffffffffffffffffffffffff1681526020019081526020016000205461170b90919063ffffffff16565b600160008073ffffffffffffffffffffffffffffffffffffffff1673ffffffffffffffffffffffffffffffffffffffff168152602001908152602001600020819055507f9abc03496c1032d5360782ca78af72ed77b086c26cb5a6a98b01178546795ec06000333484604051808573ffffffffffffffffffffffffffffffffffffffff1681526020018473ffffffffffffffffffffffffffffffffffffffff1673ffffffffffffffffffffffffffffffffffffffff16815260200183815260200180602001828103825283818151815260200191508051906020019080838360005b8381101561150f5780820151818401526020810190506114f4565b50505050905090810190601f16801561153c5780820380516001836020036101000a031916815260200191505b509550505050505060405180910390a150565b6000600160008373ffffffffffffffffffffffffffffffffffffffff1673ffffffffffffffffffffffffffffffffffffffff168152602001908152602001600020549050919050565b60016020528060005260406000206000915090505481565b60035481565b6000809054906101000a900473ffffffffffffffffffffffffffffffffffffffff1673ffffffffffffffffffffffffffffffffffffffff163373ffffffffffffffffffffffffffffffffffffffff1614151561161157600080fd5b600073ffffffffffffffffffffffffffffffffffffffff168173ffffffffffffffffffffffffffffffffffffffff161415151561164d57600080fd5b8073ffffffffffffffffffffffffffffffffffffffff166000809054906101000a900473ffffffffffffffffffffffffffffffffffffffff1673ffffffffffffffffffffffffffffffffffffffff167f8be0079c531659141344cd1fd0a4f28419497f9722a3daafe3b4186f6b6457e060405160405180910390a3806000806101000a81548173ffffffffffffffffffffffffffffffffffffffff021916908373ffffffffffffffffffffffffffffffffffffffff16021790555050565b600080828401905083811015151561171f57fe5b8091505092915050565b80600160008073ffffffffffffffffffffffffffffffffffffffff1673ffffffffffffffffffffffffffffffffffffffff168152602001908152602001600020541015151561177457fe5b8173ffffffffffffffffffffffffffffffffffffffff163373ffffffffffffffffffffffffffffffffffffffff161415156117ab57fe5b6117fd81600160008073ffffffffffffffffffffffffffffffffffffffff1673ffffffffffffffffffffffffffffffffffffffff16815260200190815260200160002054611bf090919063ffffffff16565b600160008073ffffffffffffffffffffffffffffffffffffffff1673ffffffffffffffffffffffffffffffffffffffff168152602001908152602001600020819055503373ffffffffffffffffffffffffffffffffffffffff166108fc829081150290604051600060405180830381858888f19350505050158015611886573d6000803e3d6000fd5b507f1f57a1c5b6fc2c932e07efa54e40446c010acc2e30e1d017e592b7d0f90bc8fc836000848460405180856bffffffffffffffffffffffff19166bffffffffffffffffffffffff191681526020018473ffffffffffffffffffffffffffffffffffffffff1681526020018373ffffffffffffffffffffffffffffffffffffffff1673ffffffffffffffffffffffffffffffffffffffff16815260200182815260200194505050505060405180910390a1505050565b60008373ffffffffffffffffffffffffffffffffffffffff161415151561195f57fe5b80600160008573ffffffffffffffffffffffffffffffffffffffff1673ffffffffffffffffffffffffffffffffffffffff16815260200190815260200160002054101515156119aa57fe5b6119fc81600160008673ffffffffffffffffffffffffffffffffffffffff1673ffffffffffffffffffffffffffffffffffffffff16815260200190815260200160002054611bf090919063ffffffff16565b600160008573ffffffffffffffffffffffffffffffffffffffff1673ffffffffffffffffffffffffffffffffffffffff168152602001908152602001600020819055508273ffffffffffffffffffffffffffffffffffffffff1663a9059cbb83836040518363ffffffff167c0100000000000000000000000000000000000000000000000000000000028152600401808373ffffffffffffffffffffffffffffffffffffffff1673ffffffffffffffffffffffffffffffffffffffff16815260200182815260200192505050602060405180830381600087803b158015611ae257600080fd5b505af1158015611af6573d6000803e3d6000fd5b505050506040513d6020811015611b0c57600080fd5b81019080805190602001909291905050501515611b2557fe5b7f1f57a1c5b6fc2c932e07efa54e40446c010acc2e30e1d017e592b7d0f90bc8fc8484848460405180856bffffffffffffffffffffffff19166bffffffffffffffffffffffff191681526020018473ffffffffffffffffffffffffffffffffffffffff1673ffffffffffffffffffffffffffffffffffffffff1681526020018373ffffffffffffffffffffffffffffffffffffffff1673ffffffffffffffffffffffffffffffffffffffff16815260200182815260200194505050505060405180910390a150505050565b6000828211151515611bfe57fe5b8183039050929150505600a165627a7a72305820c066b38e682826c1fbfaa6aa4ad9e2463d92b18808811b524fb1aaf0957c20f90029",
  "source": "pragma solidity ^0.4.18;\n\nimport \"zeppelin-solidity/contracts/math/SafeMath.sol\";\nimport \"zeppelin-solidity/contracts/ownership/Ownable.sol\";\nimport \"./ERC20.sol\";\n\n\ncontract ByteTradeEthereumPlugin is Ownable {\n\n    using SafeMath for uint;\n\n    mapping(address => uint) public tokens;\n    mapping(address => uint) public voteWeight;\n    uint public totalVoteWeight;\n    mapping(bytes20 => bool) public transactions;\n\n\n    event CreateAsset(address user, string chainAddress,\n          address token, string symbol, string name, uint8 decimals, string signature);\n\n    event DepositEvent(address token, address user, uint amount, string toChainAddress);\n\n    event WithdrawEvent(bytes20 id,  address token, address toUser, uint amount);\n    event TransferVoteWeightEvent(address from, address to, uint amount);\n\n    function ByteTradeEthereumPlugin() public {\n\n\n        voteWeight[address(0x17cd27f4e20556aa6faa1cbbfa7ff7262a0574d3)] = 45000000;\n        voteWeight[address(0x01de01795d0c49e144376ac4682c7d449f2f5327)] = 40000000;\n        voteWeight[address(0x3dd0716fde30f8abeb8f7a5dfff5b08ba808e8b5)] = 40000000;\n        voteWeight[address(0xacbd9c84038177b92be705160139183f39ceca97)] = 40000000;\n        voteWeight[address(0x5b84457e71d97b46a6aa118c20d55900fa7ce2d9)] = 40000000;\n        voteWeight[address(0xb380a2c97954fe567047243f7ce19801f85ad357)] = 40000000;\n        voteWeight[address(0x6e917d29361a1cbdbfbd7c4e87384b6445d4e735)] = 40000000;\n        voteWeight[address(0x92e1f1165abf7167a844f4544704865288be32cb)] = 40000000;\n        voteWeight[address(0x39347eadf8258d8d8bd3386a5542bc9b613175a7)] = 40000000;\n        voteWeight[address(0x9a1e4b075dfb5b97e4aa33ed0e4ebf6e509bdbab)] = 40000000;\n        voteWeight[address(0x5974a1aa65fbc222a19fbadba7e9ab55e0ac1679)] = 40000000;\n        totalVoteWeight = 445000000;\n        \n    }\n\n    function createasset(address token, string chainAddress,string signature) public  {\n           \n            CreateAsset(msg.sender, chainAddress, token,\n                ERC20(token).symbol(), ERC20(token).name(), ERC20(token).decimals(), signature);\n    }\n\n    function deposit(string toChainAddress) public payable {\n        require(msg.value > 0);\n\n        tokens[address(0)] = tokens[address(0)].add(msg.value);\n\n        DepositEvent(0, msg.sender, msg.value, toChainAddress);\n    }\n\n    function depositToken(address token, uint amount, string toChainAddress) public  {\n        require(token > 0);\n        require(amount > 0);    \n        assert(ERC20(token).transferFrom(msg.sender, this, amount));\n        tokens[token] = tokens[token].add(amount);\n\n        DepositEvent(token, msg.sender, amount, toChainAddress);\n\n    }\n\n    function withdrawBySigns(bytes20 id,  address token,\n        address user,uint256 amount, address[] approveAddress, bytes32[] r, bytes32[] s , uint8[] v) public payable {\n\n         require(token != address(this));\n         require(amount > 0);\n         require(transactions[id]==false);\n         require(msg.sender == user);\n\n         uint   i = 0;\n         uint   j = 0;\n         for (i = 0; i < approveAddress.length; i++) {\n            for (j = i + 1; j < approveAddress.length; j++) {\n                assert(approveAddress[i] != approveAddress[j]);\n            }\n         }\n\n         for ( i = 0 ; i < approveAddress.length; i++) {\n            bytes32 hash = keccak256(id,token, user, amount);\n\n            address result = ecrecover(hash, v[i], r[i], s[i]);\n\n            assert(approveAddress[i] == result);\n         }\n\n       uint256 approveWeight = 0;\n        for (i = 0; i < approveAddress.length; i++) {\n            approveWeight = approveWeight.add(voteWeight[approveAddress[i]]);\n        }\n\n        assert(approveWeight <= totalVoteWeight);\n\n        transactions[id]= true;\n        if (approveWeight > totalVoteWeight / 2) {\n            if (token == 0) {\n                withdraw(id,user, amount);\n            } else {\n                withdrawToken(id,token, user, amount);\n            }\n        }\n    }\n\n    function withdraw(bytes20 id, address user, uint amount) internal {\n        assert(tokens[address(0)] >= amount);\n        assert(msg.sender == user);\n\n        tokens[address(0)] = tokens[address(0)].sub(amount);\n\n       msg.sender.transfer(amount);\n\n        WithdrawEvent(id, 0, user, amount);\n\n    }\n\n    function withdrawToken(bytes20 id, address token, address user, uint amount) internal {\n       assert(token != 0);\n       assert(tokens[token] >= amount);\n\n       tokens[token] = tokens[token].sub(amount);\n       assert(ERC20(token).transfer(user, amount));\n\n        WithdrawEvent(id,token, user, amount);\n    }\n\n    function voteWeightOf(address _owner) public view returns (uint256 balance) {\n        return voteWeight[_owner];\n    }\n\n    function balanceOfToken(address token)  constant returns (uint) {\n        return tokens[token];\n    }\n\n}",
  "sourcePath": "/Users/yuhui/work/bytetrade-eth-contract/contracts/ByteTradeEthereumPlugin.sol",
  "compiler": {
    "name": "solc",
    "version": "0.4.24+commit.e67f0147.Emscripten.clang"
  },
  "schemaVersion": "2.0.0",
  "updatedAt": "2018-07-26T06:40:52.818Z"
}